{
  "contractName": "BlogChain",
  "abi": [
    {
      "constant": true,
      "inputs": [
        {
          "name": "",
          "type": "uint256"
        }
      ],
      "name": "posts",
      "outputs": [
        {
          "name": "id",
          "type": "uint256"
        },
        {
          "name": "owner",
          "type": "address"
        },
        {
          "name": "title",
          "type": "string"
        },
        {
          "name": "content",
          "type": "string"
        },
        {
          "name": "createdAt",
          "type": "uint256"
        }
      ],
      "payable": false,
      "stateMutability": "view",
      "type": "function"
    },
    {
      "constant": false,
      "inputs": [
        {
          "name": "_title",
          "type": "string"
        },
        {
          "name": "_content",
          "type": "string"
        }
      ],
      "name": "addPost",
      "outputs": [],
      "payable": false,
      "stateMutability": "nonpayable",
      "type": "function"
    },
    {
      "constant": true,
      "inputs": [],
      "name": "getPostCount",
      "outputs": [
        {
          "name": "",
          "type": "uint256"
        }
      ],
      "payable": false,
      "stateMutability": "view",
      "type": "function"
    },
    {
      "inputs": [],
      "payable": false,
      "stateMutability": "nonpayable",
      "type": "constructor"
    }
  ],
  "bytecode": "0x6060604052341561000f57600080fd5b33600360006101000a81548173ffffffffffffffffffffffffffffffffffffffff021916908373ffffffffffffffffffffffffffffffffffffffff1602179055506107a58061005f6000396000f300606060405260043610610057576000357c0100000000000000000000000000000000000000000000000000000000900463ffffffff1680630b1e7f831461005c578063b02c6516146101df578063bcc954071461027f575b600080fd5b341561006757600080fd5b61007d60048080359060200190919050506102a8565b604051808681526020018573ffffffffffffffffffffffffffffffffffffffff1673ffffffffffffffffffffffffffffffffffffffff16815260200180602001806020018481526020018381038352868181546001816001161561010002031660029004815260200191508054600181600116156101000203166002900480156101485780601f1061011d57610100808354040283529160200191610148565b820191906000526020600020905b81548152906001019060200180831161012b57829003601f168201915b50508381038252858181546001816001161561010002031660029004815260200191508054600181600116156101000203166002900480156101cb5780601f106101a0576101008083540402835291602001916101cb565b820191906000526020600020905b8154815290600101906020018083116101ae57829003601f168201915b505097505050505050505060405180910390f35b34156101ea57600080fd5b61027d600480803590602001908201803590602001908080601f0160208091040260200160405190810160405280939291908181526020018383808284378201915050505050509190803590602001908201803590602001908080601f0160208091040260200160405190810160405280939291908181526020018383808284378201915050505050509190505061030b565b005b341561028a57600080fd5b610292610546565b6040518082815260200191505060405180910390f35b6000818154811015156102b757fe5b90600052602060002090600502016000915090508060000154908060010160009054906101000a900473ffffffffffffffffffffffffffffffffffffffff1690806002019080600301908060040154905085565b6000610315610552565b600160008054905001915060a0604051908101604052808381526020013373ffffffffffffffffffffffffffffffffffffffff1681526020018581526020018481526020014281525090506000805480600101828161037491906105a4565b916000526020600020906005020160008390919091506000820151816000015560208201518160010160006101000a81548173ffffffffffffffffffffffffffffffffffffffff021916908373ffffffffffffffffffffffffffffffffffffffff16021790555060408201518160020190805190602001906103f79291906105d6565b5060608201518160030190805190602001906104149291906105d6565b50608082015181600401555050508060016000836000015181526020019081526020016000206000820151816000015560208201518160010160006101000a81548173ffffffffffffffffffffffffffffffffffffffff021916908373ffffffffffffffffffffffffffffffffffffffff16021790555060408201518160020190805190602001906104a79291906105d6565b5060608201518160030190805190602001906104c49291906105d6565b506080820151816004015590505060026000826020015173ffffffffffffffffffffffffffffffffffffffff1673ffffffffffffffffffffffffffffffffffffffff16815260200190815260200160002080548060010182816105279190610656565b9160005260206000209001600083600001519091909150555050505050565b60008080549050905090565b60a06040519081016040528060008152602001600073ffffffffffffffffffffffffffffffffffffffff16815260200161058a610682565b8152602001610597610682565b8152602001600081525090565b8154818355818115116105d1576005028160050283600052602060002091820191016105d09190610696565b5b505050565b828054600181600116156101000203166002900490600052602060002090601f016020900481019282601f1061061757805160ff1916838001178555610645565b82800160010185558215610645579182015b82811115610644578251825591602001919060010190610629565b5b509050610652919061070c565b5090565b81548183558181151161067d5781836000526020600020918201910161067c919061070c565b5b505050565b602060405190810160405280600081525090565b61070991905b80821115610705576000808201600090556001820160006101000a81549073ffffffffffffffffffffffffffffffffffffffff02191690556002820160006106e49190610731565b6003820160006106f49190610731565b60048201600090555060050161069c565b5090565b90565b61072e91905b8082111561072a576000816000905550600101610712565b5090565b90565b50805460018160011615610100020316600290046000825580601f106107575750610776565b601f016020900490600052602060002090810190610775919061070c565b5b505600a165627a7a72305820221d57cec4fb1c64f695627a924496a6c2a766746e07f6a1a5ee54a6a324b8070029",
  "source": "pragma solidity ^0.4.18;\n\n/**\n * The BlogChain contract is the core of the BlogChain system.\n *\n * This contract stores and serves blog posts created by users\n * who can also edit their posts later on.\n */\ncontract BlogChain {\n\t// Post is a blog post\n\tstruct Post {\n\t\tuint id;\n\t\taddress owner;\n\t\tstring title;\n\t\tstring content;\n\t\tuint createdAt;\n\t}\n\n\tPost[] public posts; // All posts\n\tmapping(uint => Post) postsById; // All posts by id\n\tmapping(address => uint[]) postsByUser; // Pointer to posts index created by this user\n\n\taddress owner; // owner of this contract\n\n\t// constructor\n\tfunction BlogChain() public {\n\t\towner = msg.sender;\n\t}\n\n\tfunction addPost(string _title, string _content) public {\n\t\tvar postId = posts.length + 1;\n\t\tvar post = Post(postId, msg.sender, _title, _content, now);\n\n\t\tposts.push(post);\n\t\tpostsById[post.id] = post;\n\t\tpostsByUser[post.owner].push(post.id);\n\t}\n\n\t// function editPost(uint id, string content) public {\n\t// \tvar post = postsById[id];\n\t\t\n\t// \trequire(post.owner == msg.sender);\n\n\t// \tpost.content = content;\n\t// }\n\n\tfunction getPostCount() public view returns (uint) {\n\t\treturn posts.length;\n\t}\n\n\t// function getPost(uint id) public view returns (uint, address, string, string, uint) {\n\t// \tvar post = postsById[id];\n\n\t// \treturn (post.id, post.owner, post.title, post.content, post.createdAt);\n\t// }\n\n\t// function getPostCountForUser(address user) public view returns (uint) {\n\t// \treturn postsByUser[user].length;\n\t// }\n\n\t// function getPostOfUser(address user, uint index) public view returns (uint, address, string, string, uint) {\n\t// \trequire(postsByUser[user].length > 0);\n\t// \trequire(index < postsByUser[user].length);\n\n\t// \tvar postId = postsByUser[user][index];\n\t// \treturn getPost(postId);\n\t// }\n}\n",
  "sourcePath": "/Users/jonathanp/blogchain/truffle/contracts/BlogChain.sol",
  "compiler": {
    "name": "solc",
    "version": "0.4.18+commit.9cf6e910.Emscripten.clang"
  },
  "schemaVersion": "1.0.1",
  "updatedAt": "2018-01-24T07:58:05.318Z"
}