{
  "contractName": "BlogChain",
  "abi": [
    {
      "constant": true,
      "inputs": [
        {
          "name": "",
          "type": "uint256"
        }
      ],
      "name": "posts",
      "outputs": [
        {
          "name": "id",
          "type": "uint256"
        },
        {
          "name": "owner",
          "type": "address"
        },
        {
          "name": "content",
          "type": "string"
        },
        {
          "name": "createdAt",
          "type": "uint256"
        }
      ],
      "payable": false,
      "stateMutability": "view",
      "type": "function"
    },
    {
      "constant": true,
      "inputs": [
        {
          "name": "user",
          "type": "address"
        }
      ],
      "name": "getPostsByUser",
      "outputs": [
        {
          "components": [
            {
              "name": "id",
              "type": "uint256"
            },
            {
              "name": "owner",
              "type": "address"
            },
            {
              "name": "content",
              "type": "string"
            },
            {
              "name": "createdAt",
              "type": "uint256"
            }
          ],
          "name": "",
          "type": "tuple[]"
        }
      ],
      "payable": false,
      "stateMutability": "view",
      "type": "function"
    },
    {
      "constant": true,
      "inputs": [
        {
          "name": "id",
          "type": "uint256"
        }
      ],
      "name": "getPost",
      "outputs": [
        {
          "components": [
            {
              "name": "id",
              "type": "uint256"
            },
            {
              "name": "owner",
              "type": "address"
            },
            {
              "name": "content",
              "type": "string"
            },
            {
              "name": "createdAt",
              "type": "uint256"
            }
          ],
          "name": "post",
          "type": "tuple"
        }
      ],
      "payable": false,
      "stateMutability": "view",
      "type": "function"
    },
    {
      "constant": false,
      "inputs": [
        {
          "name": "content",
          "type": "string"
        }
      ],
      "name": "submitPost",
      "outputs": [],
      "payable": false,
      "stateMutability": "nonpayable",
      "type": "function"
    },
    {
      "constant": false,
      "inputs": [
        {
          "name": "id",
          "type": "uint256"
        },
        {
          "name": "content",
          "type": "string"
        }
      ],
      "name": "editPost",
      "outputs": [],
      "payable": false,
      "stateMutability": "nonpayable",
      "type": "function"
    },
    {
      "inputs": [],
      "payable": false,
      "stateMutability": "nonpayable",
      "type": "constructor"
    }
  ],
  "bytecode": "0x6060604052341561000f57600080fd5b33600360006101000a81548173ffffffffffffffffffffffffffffffffffffffff021916908373ffffffffffffffffffffffffffffffffffffffff160217905550610abb8061005f6000396000f30060606040526004361061006d576000357c0100000000000000000000000000000000000000000000000000000000900463ffffffff1680630b1e7f8314610072578063285389491461016c57806340731c24146101f5578063a59977461461022c578063fa99654a14610289575b600080fd5b341561007d57600080fd5b61009360048080359060200190919050506102ef565b604051808581526020018473ffffffffffffffffffffffffffffffffffffffff1673ffffffffffffffffffffffffffffffffffffffff1681526020018060200183815260200182810382528481815460018160011615610100020316600290048152602001915080546001816001161561010002031660029004801561015a5780601f1061012f5761010080835404028352916020019161015a565b820191906000526020600020905b81548152906001019060200180831161013d57829003601f168201915b50509550505050505060405180910390f35b341561017757600080fd5b6101a3600480803573ffffffffffffffffffffffffffffffffffffffff1690602001909190505061034d565b60405180806020018281038252838181518152602001915080516000925b818410156101e457828490602001906020020151815260200192600101926101c1565b925050509250505060405180910390f35b341561020057600080fd5b610216600480803590602001909190505061052a565b6040518082815260200191505060405180910390f35b341561023757600080fd5b610287600480803590602001908201803590602001908080601f01602080910402602001604051908101604052809392919081815260200183838082843782019150505050505091905050610664565b005b341561029457600080fd5b6102ed600480803590602001909190803590602001908201803590602001908080601f01602080910402602001604051908101604052809392919081815260200183838082843782019150505050505091905050610837565b005b6000818154811015156102fe57fe5b90600052602060002090600402016000915090508060000154908060010160009054906101000a900473ffffffffffffffffffffffffffffffffffffffff169080600201908060030154905084565b6103556108ca565b600061035f6108ca565b6000600260008673ffffffffffffffffffffffffffffffffffffffff1673ffffffffffffffffffffffffffffffffffffffff1681526020019081526020016000209250600090505b828054905081101561051f576001600084838154811015156103c557fe5b906000526020600020900154815260200190815260200160002060806040519081016040529081600082015481526020016001820160009054906101000a900473ffffffffffffffffffffffffffffffffffffffff1673ffffffffffffffffffffffffffffffffffffffff1673ffffffffffffffffffffffffffffffffffffffff168152602001600282018054600181600116156101000203166002900480601f0160208091040260200160405190810160405280929190818152602001828054600181600116156101000203166002900480156104e45780601f106104b9576101008083540402835291602001916104e4565b820191906000526020600020905b8154815290600101906020018083116104c757829003601f168201915b50505050508152602001600382015481525050828281518110151561050557fe5b9060200190602002018190525080806001019150506103a7565b819350505050919050565b6105326108de565b6001600083815260200190815260200160002060806040519081016040529081600082015481526020016001820160009054906101000a900473ffffffffffffffffffffffffffffffffffffffff1673ffffffffffffffffffffffffffffffffffffffff1673ffffffffffffffffffffffffffffffffffffffff168152602001600282018054600181600116156101000203166002900480601f01602080910402602001604051908101604052809291908181526020018280546001816001161561010002031660029004801561064a5780601f1061061f5761010080835404028352916020019161064a565b820191906000526020600020905b81548152906001019060200180831161062d57829003601f168201915b505050505081526020016003820154815250509050919050565b6000806000805490509150600082141561067d57600191505b60008281548110151561068c57fe5b90600052602060002090600402019050818160000181905550338160010160006101000a81548173ffffffffffffffffffffffffffffffffffffffff021916908373ffffffffffffffffffffffffffffffffffffffff16021790555082816002019080519060200190610700929190610923565b50428160030181905550806001600083600001548152602001908152602001600020600082015481600001556001820160009054906101000a900473ffffffffffffffffffffffffffffffffffffffff168160010160006101000a81548173ffffffffffffffffffffffffffffffffffffffff021916908373ffffffffffffffffffffffffffffffffffffffff160217905550600282018160020190805460018160011615610100020316600290046107ba9291906109a3565b5060038201548160030155905050600260003373ffffffffffffffffffffffffffffffffffffffff1673ffffffffffffffffffffffffffffffffffffffff16815260200190815260200160002080548060010182816108199190610a2a565b91600052602060002090016000836000015490919091505550505050565b60006001600084815260200190815260200160002090503373ffffffffffffffffffffffffffffffffffffffff168160010160009054906101000a900473ffffffffffffffffffffffffffffffffffffffff1673ffffffffffffffffffffffffffffffffffffffff161415156108ac57600080fd5b818160020190805190602001906108c4929190610923565b50505050565b602060405190810160405280600081525090565b60806040519081016040528060008152602001600073ffffffffffffffffffffffffffffffffffffffff168152602001610916610a56565b8152602001600081525090565b828054600181600116156101000203166002900490600052602060002090601f016020900481019282601f1061096457805160ff1916838001178555610992565b82800160010185558215610992579182015b82811115610991578251825591602001919060010190610976565b5b50905061099f9190610a6a565b5090565b828054600181600116156101000203166002900490600052602060002090601f016020900481019282601f106109dc5780548555610a19565b82800160010185558215610a1957600052602060002091601f016020900482015b82811115610a185782548255916001019190600101906109fd565b5b509050610a269190610a6a565b5090565b815481835581811511610a5157818360005260206000209182019101610a509190610a6a565b5b505050565b602060405190810160405280600081525090565b610a8c91905b80821115610a88576000816000905550600101610a70565b5090565b905600a165627a7a723058202e11550167d34f440e0572fd82232a1e7068757ffe6604fee4f16aae1c71c5950029",
  "source": "pragma solidity ^0.4.18;\n\n/**\n * The BlogChain contract is the core of the BlogChain system.\n *\n * This contract stores and serves blog posts created by users\n * who can also edit their posts later on.\n */\ncontract BlogChain {\n\t// Post is a blog post\n\tstruct Post {\n\t\tuint id;\n\t\taddress owner;\n\t\tstring content;\n\t\tuint createdAt;\n\t}\n\n\tPost[] public posts; // All posts\n\tmapping(uint => Post) postsById; // All posts by id\n\tmapping(address => uint[]) postsByUser; // Pointer to posts index created by this user\n\n\taddress owner; // owner of this contract\n\n\t// constructor\n\tfunction BlogChain() public {\n\t\towner = msg.sender;\n\t}\n\n\tfunction submitPost(string content) public {\n\t\tvar postId = posts.length;\n\t\tif (postId == 0) {\n\t\t\tpostId = 1;\n\t\t}\n\t\tvar post = posts[postId];\n\t\tpost.id = postId;\n\t\tpost.owner = msg.sender;\n\t\tpost.content = content;\n\t\tpost.createdAt = now;\n\n\t\tpostsById[post.id] = post;\n\t\tpostsByUser[msg.sender].push(post.id);\n\t}\n\n\tfunction editPost(uint id, string content) public {\n\t\tvar post = postsById[id];\n\t\t\n\t\trequire(post.owner == msg.sender);\n\n\t\tpost.content = content;\n\t}\n\n\tfunction getPost(uint id) public view returns (Post post) {\n\t\treturn postsById[id];\n\t}\n\n\tfunction getPostsByUser(address user) public view returns (Post[]) {\n\t\tvar ids = postsByUser[user];\n\t\tPost[] memory userPosts;\n\n\t\tfor (uint i = 0; i < ids.length; i++) {\n\t\t\tuserPosts[i] = postsById[ids[i]];\n\t\t}\n\n\t\treturn userPosts;\n\t}\n}\n",
  "sourcePath": "/Users/jonathanp/blogchain/truffle/contracts/BlogChain.sol",
  "compiler": {
    "name": "solc",
    "version": "0.4.18+commit.9cf6e910.Emscripten.clang"
  },
  "schemaVersion": "1.0.1",
  "updatedAt": "2018-01-21T08:34:59.754Z"
}