{
  "contractName": "BlogChain",
  "abi": [
    {
      "constant": true,
      "inputs": [
        {
          "name": "user",
          "type": "address"
        }
      ],
      "name": "getPostCountForUser",
      "outputs": [
        {
          "name": "",
          "type": "uint256"
        }
      ],
      "payable": false,
      "stateMutability": "view",
      "type": "function"
    },
    {
      "constant": true,
      "inputs": [
        {
          "name": "user",
          "type": "address"
        },
        {
          "name": "index",
          "type": "uint256"
        }
      ],
      "name": "getPostOfUser",
      "outputs": [
        {
          "name": "",
          "type": "uint256"
        },
        {
          "name": "",
          "type": "address"
        },
        {
          "name": "",
          "type": "string"
        },
        {
          "name": "",
          "type": "string"
        },
        {
          "name": "",
          "type": "uint256"
        }
      ],
      "payable": false,
      "stateMutability": "view",
      "type": "function"
    },
    {
      "constant": true,
      "inputs": [
        {
          "name": "id",
          "type": "uint256"
        }
      ],
      "name": "getPost",
      "outputs": [
        {
          "name": "",
          "type": "uint256"
        },
        {
          "name": "",
          "type": "address"
        },
        {
          "name": "",
          "type": "string"
        },
        {
          "name": "",
          "type": "string"
        },
        {
          "name": "",
          "type": "uint256"
        }
      ],
      "payable": false,
      "stateMutability": "view",
      "type": "function"
    },
    {
      "constant": false,
      "inputs": [
        {
          "name": "_title",
          "type": "string"
        },
        {
          "name": "_content",
          "type": "string"
        }
      ],
      "name": "addPost",
      "outputs": [],
      "payable": false,
      "stateMutability": "nonpayable",
      "type": "function"
    },
    {
      "constant": true,
      "inputs": [],
      "name": "getPostCount",
      "outputs": [
        {
          "name": "",
          "type": "uint256"
        }
      ],
      "payable": false,
      "stateMutability": "view",
      "type": "function"
    },
    {
      "constant": false,
      "inputs": [
        {
          "name": "id",
          "type": "uint256"
        },
        {
          "name": "content",
          "type": "string"
        }
      ],
      "name": "editPost",
      "outputs": [],
      "payable": false,
      "stateMutability": "nonpayable",
      "type": "function"
    },
    {
      "inputs": [],
      "payable": false,
      "stateMutability": "nonpayable",
      "type": "constructor"
    }
  ],
  "bytecode": "0x6060604052341561000f57600080fd5b33600360006101000a81548173ffffffffffffffffffffffffffffffffffffffff021916908373ffffffffffffffffffffffffffffffffffffffff160217905550610d948061005f6000396000f300606060405260043610610078576000357c0100000000000000000000000000000000000000000000000000000000900463ffffffff1680630474234a1461007d57806335777771146100ca57806340731c2414610232578063b02c65161461037b578063bcc954071461041b578063fa99654a14610444575b600080fd5b341561008857600080fd5b6100b4600480803573ffffffffffffffffffffffffffffffffffffffff169060200190919050506104aa565b6040518082815260200191505060405180910390f35b34156100d557600080fd5b61010a600480803573ffffffffffffffffffffffffffffffffffffffff169060200190919080359060200190919050506104f6565b604051808681526020018573ffffffffffffffffffffffffffffffffffffffff1673ffffffffffffffffffffffffffffffffffffffff1681526020018060200180602001848152602001838103835286818151815260200191508051906020019080838360005b8381101561018c578082015181840152602081019050610171565b50505050905090810190601f1680156101b95780820380516001836020036101000a031916815260200191505b50838103825285818151815260200191508051906020019080838360005b838110156101f25780820151818401526020810190506101d7565b50505050905090810190601f16801561021f5780820380516001836020036101000a031916815260200191505b5097505050505050505060405180910390f35b341561023d57600080fd5b6102536004808035906020019091905050610625565b604051808681526020018573ffffffffffffffffffffffffffffffffffffffff1673ffffffffffffffffffffffffffffffffffffffff1681526020018060200180602001848152602001838103835286818151815260200191508051906020019080838360005b838110156102d55780820151818401526020810190506102ba565b50505050905090810190601f1680156103025780820380516001836020036101000a031916815260200191505b50838103825285818151815260200191508051906020019080838360005b8381101561033b578082015181840152602081019050610320565b50505050905090810190601f1680156103685780820380516001836020036101000a031916815260200191505b5097505050505050505060405180910390f35b341561038657600080fd5b610419600480803590602001908201803590602001908080601f0160208091040260200160405190810160405280939291908181526020018383808284378201915050505050509190803590602001908201803590602001908080601f016020809104026020016040519081016040528093929190818152602001838380828437820191505050505050919050506107d3565b005b341561042657600080fd5b61042e610a0e565b6040518082815260200191505060405180910390f35b341561044f57600080fd5b6104a8600480803590602001909190803590602001908201803590602001908080601f01602080910402602001604051908101604052809392919081815260200183838082843782019150505050505091905050610a1a565b005b6000600260008373ffffffffffffffffffffffffffffffffffffffff1673ffffffffffffffffffffffffffffffffffffffff168152602001908152602001600020805490509050919050565b600080610501610aad565b610509610aad565b6000806000600260008a73ffffffffffffffffffffffffffffffffffffffff1673ffffffffffffffffffffffffffffffffffffffff1681526020019081526020016000208054905011151561055d57600080fd5b600260008973ffffffffffffffffffffffffffffffffffffffff1673ffffffffffffffffffffffffffffffffffffffff16815260200190815260200160002080549050871015156105ad57600080fd5b600260008973ffffffffffffffffffffffffffffffffffffffff1673ffffffffffffffffffffffffffffffffffffffff168152602001908152602001600020878154811015156105f957fe5b906000526020600020900154905061061081610625565b95509550955095509550509295509295909350565b600080610630610aad565b610638610aad565b60008060016000888152602001908152602001600020905080600001548160010160009054906101000a900473ffffffffffffffffffffffffffffffffffffffff1682600201836003018460040154828054600181600116156101000203166002900480601f01602080910402602001604051908101604052809291908181526020018280546001816001161561010002031660029004801561071c5780601f106106f15761010080835404028352916020019161071c565b820191906000526020600020905b8154815290600101906020018083116106ff57829003601f168201915b50505050509250818054600181600116156101000203166002900480601f0160208091040260200160405190810160405280929190818152602001828054600181600116156101000203166002900480156107b85780601f1061078d576101008083540402835291602001916107b8565b820191906000526020600020905b81548152906001019060200180831161079b57829003601f168201915b50505050509150955095509550955095505091939590929450565b60006107dd610ac1565b600160008054905001915060a0604051908101604052808381526020013373ffffffffffffffffffffffffffffffffffffffff1681526020018581526020018481526020014281525090506000805480600101828161083c9190610b13565b916000526020600020906005020160008390919091506000820151816000015560208201518160010160006101000a81548173ffffffffffffffffffffffffffffffffffffffff021916908373ffffffffffffffffffffffffffffffffffffffff16021790555060408201518160020190805190602001906108bf929190610b45565b5060608201518160030190805190602001906108dc929190610b45565b50608082015181600401555050508060016000836000015181526020019081526020016000206000820151816000015560208201518160010160006101000a81548173ffffffffffffffffffffffffffffffffffffffff021916908373ffffffffffffffffffffffffffffffffffffffff160217905550604082015181600201908051906020019061096f929190610b45565b50606082015181600301908051906020019061098c929190610b45565b506080820151816004015590505060026000826020015173ffffffffffffffffffffffffffffffffffffffff1673ffffffffffffffffffffffffffffffffffffffff16815260200190815260200160002080548060010182816109ef9190610bc5565b9160005260206000209001600083600001519091909150555050505050565b60008080549050905090565b60006001600084815260200190815260200160002090503373ffffffffffffffffffffffffffffffffffffffff168160010160009054906101000a900473ffffffffffffffffffffffffffffffffffffffff1673ffffffffffffffffffffffffffffffffffffffff16141515610a8f57600080fd5b81816003019080519060200190610aa7929190610bf1565b50505050565b602060405190810160405280600081525090565b60a06040519081016040528060008152602001600073ffffffffffffffffffffffffffffffffffffffff168152602001610af9610c71565b8152602001610b06610c71565b8152602001600081525090565b815481835581811511610b4057600502816005028360005260206000209182019101610b3f9190610c85565b5b505050565b828054600181600116156101000203166002900490600052602060002090601f016020900481019282601f10610b8657805160ff1916838001178555610bb4565b82800160010185558215610bb4579182015b82811115610bb3578251825591602001919060010190610b98565b5b509050610bc19190610cfb565b5090565b815481835581811511610bec57818360005260206000209182019101610beb9190610cfb565b5b505050565b828054600181600116156101000203166002900490600052602060002090601f016020900481019282601f10610c3257805160ff1916838001178555610c60565b82800160010185558215610c60579182015b82811115610c5f578251825591602001919060010190610c44565b5b509050610c6d9190610cfb565b5090565b602060405190810160405280600081525090565b610cf891905b80821115610cf4576000808201600090556001820160006101000a81549073ffffffffffffffffffffffffffffffffffffffff0219169055600282016000610cd39190610d20565b600382016000610ce39190610d20565b600482016000905550600501610c8b565b5090565b90565b610d1d91905b80821115610d19576000816000905550600101610d01565b5090565b90565b50805460018160011615610100020316600290046000825580601f10610d465750610d65565b601f016020900490600052602060002090810190610d649190610cfb565b5b505600a165627a7a723058206d1c212ff02b86a1ba3d2fb5ce64666c203952667893371420e91a8a7e8708310029",
  "source": "pragma solidity ^0.4.18;\n\n/**\n * The BlogChain contract is the core of the BlogChain system.\n *\n * This contract stores and serves blog posts created by users\n * who can also edit their posts later on.\n */\ncontract BlogChain {\n\t// Post is a blog post\n\tstruct Post {\n\t\tuint id;\n\t\taddress owner;\n\t\tstring title;\n\t\tstring content;\n\t\tuint createdAt;\n\t}\n\n\tPost[] posts; // All posts\n\tmapping(uint => Post) postsById; // All posts by id\n\tmapping(address => uint[]) postsByUser; // Pointer to posts index created by this user\n\n\taddress owner; // owner of this contract\n\n\t// constructor\n\tfunction BlogChain() public {\n\t\towner = msg.sender;\n\t}\n\n\tfunction addPost(string _title, string _content) public {\n\t\tvar postId = posts.length + 1;\n\t\tvar post = Post(postId, msg.sender, _title, _content, now);\n\n\t\tposts.push(post);\n\t\tpostsById[post.id] = post;\n\t\tpostsByUser[post.owner].push(post.id);\n\t}\n\n\tfunction editPost(uint id, string content) public {\n\t\tvar post = postsById[id];\n\t\t\n\t\trequire(post.owner == msg.sender);\n\n\t\tpost.content = content;\n\t}\n\n\tfunction getPostCount() public view returns (uint) {\n\t\treturn posts.length;\n\t}\n\n\tfunction getPost(uint id) public view returns (uint, address, string, string, uint) {\n\t\tvar post = postsById[id];\n\n\t\treturn (post.id, post.owner, post.title, post.content, post.createdAt);\n\t}\n\n\tfunction getPostCountForUser(address user) public view returns (uint) {\n\t\treturn postsByUser[user].length;\n\t}\n\n\tfunction getPostOfUser(address user, uint index) public view returns (uint, address, string, string, uint) {\n\t\trequire(postsByUser[user].length > 0);\n\t\trequire(index < postsByUser[user].length);\n\n\t\tvar postId = postsByUser[user][index];\n\t\treturn getPost(postId);\n\t}\n}\n",
  "sourcePath": "/Users/jonathanp/blogchain/truffle/contracts/BlogChain.sol",
  "compiler": {
    "name": "solc",
    "version": "0.4.18+commit.9cf6e910.Emscripten.clang"
  },
  "schemaVersion": "1.0.1",
  "updatedAt": "2018-01-23T08:43:04.359Z"
}