{
  "contractName": "BlogChain",
  "abi": [
    {
      "constant": true,
      "inputs": [
        {
          "name": "",
          "type": "uint256"
        }
      ],
      "name": "posts",
      "outputs": [
        {
          "name": "id",
          "type": "uint256"
        },
        {
          "name": "owner",
          "type": "address"
        },
        {
          "name": "title",
          "type": "string"
        },
        {
          "name": "content",
          "type": "string"
        },
        {
          "name": "createdAt",
          "type": "uint256"
        }
      ],
      "payable": false,
      "stateMutability": "view",
      "type": "function"
    },
    {
      "constant": true,
      "inputs": [
        {
          "name": "user",
          "type": "address"
        }
      ],
      "name": "getPostsByUser",
      "outputs": [
        {
          "components": [
            {
              "name": "id",
              "type": "uint256"
            },
            {
              "name": "owner",
              "type": "address"
            },
            {
              "name": "title",
              "type": "string"
            },
            {
              "name": "content",
              "type": "string"
            },
            {
              "name": "createdAt",
              "type": "uint256"
            }
          ],
          "name": "",
          "type": "tuple[]"
        }
      ],
      "payable": false,
      "stateMutability": "view",
      "type": "function"
    },
    {
      "constant": false,
      "inputs": [
        {
          "name": "title",
          "type": "string"
        },
        {
          "name": "content",
          "type": "string"
        }
      ],
      "name": "submitPost",
      "outputs": [],
      "payable": false,
      "stateMutability": "nonpayable",
      "type": "function"
    },
    {
      "constant": false,
      "inputs": [
        {
          "name": "id",
          "type": "uint256"
        },
        {
          "name": "content",
          "type": "string"
        }
      ],
      "name": "editPost",
      "outputs": [],
      "payable": false,
      "stateMutability": "nonpayable",
      "type": "function"
    },
    {
      "inputs": [],
      "payable": false,
      "stateMutability": "nonpayable",
      "type": "constructor"
    }
  ],
  "bytecode": "0x6060604052341561000f57600080fd5b33600360006101000a81548173ffffffffffffffffffffffffffffffffffffffff021916908373ffffffffffffffffffffffffffffffffffffffff160217905550610a9b8061005f6000396000f300606060405260043610610062576000357c0100000000000000000000000000000000000000000000000000000000900463ffffffff1680630b1e7f831461006757806328538949146101ea578063f78839a814610273578063fa99654a14610313575b600080fd5b341561007257600080fd5b6100886004808035906020019091905050610379565b604051808681526020018573ffffffffffffffffffffffffffffffffffffffff1673ffffffffffffffffffffffffffffffffffffffff16815260200180602001806020018481526020018381038352868181546001816001161561010002031660029004815260200191508054600181600116156101000203166002900480156101535780601f1061012857610100808354040283529160200191610153565b820191906000526020600020905b81548152906001019060200180831161013657829003601f168201915b50508381038252858181546001816001161561010002031660029004815260200191508054600181600116156101000203166002900480156101d65780601f106101ab576101008083540402835291602001916101d6565b820191906000526020600020905b8154815290600101906020018083116101b957829003601f168201915b505097505050505050505060405180910390f35b34156101f557600080fd5b610221600480803573ffffffffffffffffffffffffffffffffffffffff169060200190919050506103dc565b60405180806020018281038252838181518152602001915080516000925b81841015610262578284906020019060200201518152602001926001019261023f565b925050509250505060405180910390f35b341561027e57600080fd5b610311600480803590602001908201803590602001908080601f0160208091040260200160405190810160405280939291908181526020018383808284378201915050505050509190803590602001908201803590602001908080601f0160208091040260200160405190810160405280939291908181526020018383808284378201915050505050509190505061065b565b005b341561031e57600080fd5b610377600480803590602001909190803590602001908201803590602001908080601f01602080910402602001604051908101604052809392919081815260200183838082843782019150505050505091905050610870565b005b60008181548110151561038857fe5b90600052602060002090600502016000915090508060000154908060010160009054906101000a900473ffffffffffffffffffffffffffffffffffffffff1690806002019080600301908060040154905085565b6103e4610903565b60006103ee610903565b6000600260008673ffffffffffffffffffffffffffffffffffffffff1673ffffffffffffffffffffffffffffffffffffffff1681526020019081526020016000209250600090505b82805490508110156106505760016000848381548110151561045457fe5b906000526020600020900154815260200190815260200160002060a06040519081016040529081600082015481526020016001820160009054906101000a900473ffffffffffffffffffffffffffffffffffffffff1673ffffffffffffffffffffffffffffffffffffffff1673ffffffffffffffffffffffffffffffffffffffff168152602001600282018054600181600116156101000203166002900480601f0160208091040260200160405190810160405280929190818152602001828054600181600116156101000203166002900480156105735780601f1061054857610100808354040283529160200191610573565b820191906000526020600020905b81548152906001019060200180831161055657829003601f168201915b50505050508152602001600382018054600181600116156101000203166002900480601f0160208091040260200160405190810160405280929190818152602001828054600181600116156101000203166002900480156106155780601f106105ea57610100808354040283529160200191610615565b820191906000526020600020905b8154815290600101906020018083116105f857829003601f168201915b50505050508152602001600482015481525050828281518110151561063657fe5b906020019060200201819052508080600101915050610436565b819350505050919050565b6000806000805490509150600082141561067457600191505b60008281548110151561068357fe5b90600052602060002090600502019050818160000181905550338160010160006101000a81548173ffffffffffffffffffffffffffffffffffffffff021916908373ffffffffffffffffffffffffffffffffffffffff160217905550838160020190805190602001906106f7929190610917565b5082816003019080519060200190610710929190610917565b50428160040181905550806001600083600001548152602001908152602001600020600082015481600001556001820160009054906101000a900473ffffffffffffffffffffffffffffffffffffffff168160010160006101000a81548173ffffffffffffffffffffffffffffffffffffffff021916908373ffffffffffffffffffffffffffffffffffffffff160217905550600282018160020190805460018160011615610100020316600290046107ca929190610997565b50600382018160030190805460018160011615610100020316600290046107f2929190610997565b5060048201548160040155905050600260003373ffffffffffffffffffffffffffffffffffffffff1673ffffffffffffffffffffffffffffffffffffffff16815260200190815260200160002080548060010182816108519190610a1e565b9160005260206000209001600083600001549091909150555050505050565b60006001600084815260200190815260200160002090503373ffffffffffffffffffffffffffffffffffffffff168160010160009054906101000a900473ffffffffffffffffffffffffffffffffffffffff1673ffffffffffffffffffffffffffffffffffffffff161415156108e557600080fd5b818160030190805190602001906108fd929190610917565b50505050565b602060405190810160405280600081525090565b828054600181600116156101000203166002900490600052602060002090601f016020900481019282601f1061095857805160ff1916838001178555610986565b82800160010185558215610986579182015b8281111561098557825182559160200191906001019061096a565b5b5090506109939190610a4a565b5090565b828054600181600116156101000203166002900490600052602060002090601f016020900481019282601f106109d05780548555610a0d565b82800160010185558215610a0d57600052602060002091601f016020900482015b82811115610a0c5782548255916001019190600101906109f1565b5b509050610a1a9190610a4a565b5090565b815481835581811511610a4557818360005260206000209182019101610a449190610a4a565b5b505050565b610a6c91905b80821115610a68576000816000905550600101610a50565b5090565b905600a165627a7a723058208a332d3a567024432b2f8640b14aef491f69000260136fd1e2927467f446fe180029",
  "source": "pragma solidity ^0.4.18;\n\n/**\n * The BlogChain contract is the core of the BlogChain system.\n *\n * This contract stores and serves blog posts created by users\n * who can also edit their posts later on.\n */\ncontract BlogChain {\n\t// Post is a blog post\n\tstruct Post {\n\t\tuint id;\n\t\taddress owner;\n\t\tstring title;\n\t\tstring content;\n\t\tuint createdAt;\n\t}\n\n\tPost[] public posts; // All posts\n\tmapping(uint => Post) postsById; // All posts by id\n\tmapping(address => uint[]) postsByUser; // Pointer to posts index created by this user\n\n\taddress owner; // owner of this contract\n\n\t// constructor\n\tfunction BlogChain() public {\n\t\towner = msg.sender;\n\t}\n\n\tfunction submitPost(string title, string content) public {\n\t\tvar postId = posts.length;\n\t\tif (postId == 0) {\n\t\t\tpostId = 1;\n\t\t}\n\t\tvar post = posts[postId];\n\t\tpost.id = postId;\n\t\tpost.owner = msg.sender;\n\t\tpost.title = title;\n\t\tpost.content = content;\n\t\tpost.createdAt = now;\n\n\t\tpostsById[post.id] = post;\n\t\tpostsByUser[msg.sender].push(post.id);\n\t}\n\n\tfunction editPost(uint id, string content) public {\n\t\tvar post = postsById[id];\n\t\t\n\t\trequire(post.owner == msg.sender);\n\n\t\tpost.content = content;\n\t}\n\n\tfunction getPostsByUser(address user) public view returns (Post[]) {\n\t\tvar ids = postsByUser[user];\n\t\tPost[] memory userPosts;\n\n\t\tfor (uint i = 0; i < ids.length; i++) {\n\t\t\tuserPosts[i] = postsById[ids[i]];\n\t\t}\n\n\t\treturn userPosts;\n\t}\n}\n",
  "sourcePath": "/Users/jonathanp/blogchain/truffle/contracts/BlogChain.sol",
  "compiler": {
    "name": "solc",
    "version": "0.4.18+commit.9cf6e910.Emscripten.clang"
  },
  "schemaVersion": "1.0.1",
  "updatedAt": "2018-01-21T09:56:39.415Z"
}